:020000020000FC
:0800000000C4FEC3FDC3FCC3F4
:10080000189504E00EBF0FE50DBF772488246624F9
:1008100002E0502E0FEF402E0FE007BB0FEF04BB9E
:1008200000EF01BB0FEF02BB0FEF102E0FE0302ED9
:1008300000EF202E212D412D002704BB05BB022FE8
:10084000012548BB04BB00000000000000000000C0
:10085000000000000000000030B313B3432F422318
:100860004125412B4229232F22292F7DE8CF639454
:1008700009F00895739409F008958394851409F09C
:0E088000089588247295732972BB712D089516
:00000001FF
